:020000040800F2
:108000000000022071890008FD880008FF88000830
:1080100001890008038900080589000800000000A4
:1080200000000000000000000000000007890008B8
:1080300009890008000000000B8900080D8900086C
:10804000C1890008C1890008C1890008C1890008E8
:10805000C1890008C1890008C1890008C1890008D8
:10806000C1890008C1890008C1890008C1890008C8
:10807000C1890008C1890008C1890008C1890008B8
:108080001589000825890008C1890008C1890008F0
:10809000C1890008C1890008C1890008C189000898
:1080A000C189000835890008C1890008C189000814
:1080B000C1890008C1890008C1890008C189000878
:1080C000C1890008C1890008C1890008C189000868
:1080D000C1890008C189000845890008C1890008D4
:1080E000C1890008C1890008C1890008C189000848
:1080F000C1890008C1890008C1890008C189000838
:10810000C1890008C1890008C1890008C189000827
:10811000C1890008C1890008C1890008C189000817
:10812000C1890008C1890008C1890008C189000807
:10813000C18900080000000000000000C18900089B
:10814000C1890008C1890008C1890008C1890008E7
:10815000C1890008C1890008C1890008C1890008D7
:10816000C1890008C1890008C1890008C1890008C7
:10817000C1890008C1890008C18900080000000009
:1081800000000000C189000800000000000000009D
:10819000C18900080000000000000000C18900083B
:1081A000000000000000000000000000C18900087D
:1081B000C1890008C1890008C1890008C189000877
:0481C000C189000869
:1081C40010B5054C237833B9044B13B10448AFF30D
:1081D40000800123237010BD100000200000000067
:1081E40088B0000808B5034B1BB103490348AFF33B
:1081F400008008BD000000001400002088B00008C2
:10820400034613F8012B002AFBD1181A01387047D2
:1082140053B94AB9002908BF00281CBF4FF0FF31E9
:108224004FF0FF3000F074B9ADF1080C6DE904CEE5
:1082340000F006F8DDF804E0DDE9022304B070473D
:108244002DE9F047089D04468E46002B4DD18A4205
:10825400944669D9B2FA82F252B101FA02F3C2F138
:10826400200120FA01F10CFA02FC41EA030E9440C9
:108274004FEA1C48210CBEFBF8F61FFA8CF708FBEA
:1082840016E341EA034306FB07F199420AD91CEBC2
:10829400030306F1FF3080F01F81994240F21C81F4
:1082A400023E63445B1AA4B2B3FBF8F008FB10333C
:1082B40044EA034400FB07F7A7420AD91CEB040471
:1082C40000F1FF3380F00A81A74240F20781644441
:1082D400023840EA0640E41B00261DB1D4400023C6
:1082E400C5E900433146BDE8F0878B4209D9002D2A
:1082F40000F0EF800026C5E9000130463146BDE8B4
:10830400F087B3FA83F6002E4AD18B4202D382421D
:1083140000F2F980841A61EB030301209E46002DCC
:10832400E0D0C5E9004EDDE702B9FFDEB2FA82F221
:10833400002A40F09280A1EB0C014FEA1C471FFA7F
:108344008CFE0126200CB1FBF7F307FB131140EA66
:1083540001410EFB03F0884208D91CEB010103F133
:10836400FF3802D2884200F2CB804346091AA4B2F5
:10837400B1FBF7F007FB101144EA01440EFB00FEC9
:10838400A64508D91CEB040400F1FF3102D2A6452E
:1083940000F2BB800846A4EB0E0440EA03409CE7CD
:1083A400C6F12007B34022FA07FC4CEA030C20FA7A
:1083B40007F401FA06F31C43F9404FEA1C4900FA9A
:1083C40006F3B1FBF9F8200C1FFA8CFE09FB181117
:1083D40040EA014108FB0EF0884202FA06F20BD98A
:1083E4001CEB010108F1FF3A80F08880884240F2DA
:1083F4008580A8F102086144091AA4B2B1FBF9F01E
:1084040009FB101144EA014100FB0EFE8E4508D918
:108414001CEB010100F1FF346CD28E456AD902389D
:10842400614440EA0840A0FB0294A1EB0E01A14282
:10843400C846A64656D353D05DB1B3EB080261EBF0
:108444000E0101FA07F722FA06F3F1401F43C5E9CA
:10845400007100263146BDE8F087C2F12003D84000
:108464000CFA02FC21FA03F3914001434FEA1C4742
:108474001FFA8CFEB3FBF7F007FB10360B0C43EA34
:10848400064300FB0EF69E4204FA02F408D91CEBE4
:10849400030300F1FF382FD29E422DD902386344E2
:1084A4009B1B89B2B3FBF7F607FB163341EA034182
:1084B40006FB0EF38B4208D91CEB010106F1FF38D1
:1084C40016D28B4214D9023E6144C91A46EA0046C8
:1084D40038E72E46284605E70646E3E61846F8E65A
:1084E4004B45A9D2B9EB020864EB0C0E0138A3E7A3
:1084F4004646EAE7204694E74046D1E7D0467BE784
:10850400023B614432E7304609E76444023842E7FB
:10851400704700BF00B595B03422002107A802F0CF
:10852400A9FD0023029303930493059306930093F8
:10853400224A116C41F080511164126C02F0805295
:108544000092009A01931E4B1A6842F440421A604A
:108554001B6803F440430193019B012307934FF4E9
:10856400A023089302230D934FF480020E92042259
:108574000F92B422109211931293139307A801F04F
:1085840025F8A0B900F052FE98B90F2302930223F4
:108594000393002304934FF4A053059306930521FA
:1085A40002A800F081FE30B915B05DF804FB72B684
:1085B400FEE772B6FEE772B6FEE700BF003802407F
:1085C4000070004080B58EB000F020FAFFF7A2FFE3
:1085D400002409940A940B940C940D940294614D14
:1085E4002B6B43F004032B632B6B03F00403029304
:1085F400029B03942B6B43F080032B632B6B03F0E0
:1086040080030393039B04942B6B43F001032B63BC
:108614002B6B03F001030493049B05942B6B43F031
:1086240002032B632B6B03F002030593059B069453
:108634002B6B43F008032B632B6B03F008030693A7
:10864400069B494F22462021384600F0E9FD4FF6AB
:10865400FF73099303260A960B9409A9434800F073
:10866400DFFC49F6D37309930A960B9409A938469B
:1086740000F0D6FC2023099301230A930B940C9455
:1086840009A9384600F0CCFC4FF2FF7309930A960F
:108694000B9409A9364800F0C3FC042309930A96F5
:1086A4000B9409A9334800F0BBFC01942B6B43F4F1
:1086B40000132B632B6B03F400130193019B2246DD
:1086C4002146102000F0F4F9102000F027FA224689
:1086D4002146112000F0ECF9112000F01FFA264881
:1086E400264B03604FF4E13343608460C46004614B
:1086F4000C2343618461C46101F01AFE48BB00236A
:1087040009930A930B930C93079308931C481D4AEF
:10871400026042F227324260836041F28732C260D3
:1087240003614361836101F0D5FCA0B94FF4805328
:10873400099309A9124801F0D6FB70B900230793E5
:10874400089307A90E4801F0FBFC40B902F048FC6D
:10875400FEE772B6FEE772B6FEE772B6FEE772B6E1
:10876400FEE700BF0038024000000240000802405B
:1087740000040240000C0240A0010020004400401C
:10878400EC0000200000014072B6FEE782B0002138
:1087940000910B4B5A6C42F480425A645A6C02F4B6
:1087A40080420092009A01911A6C42F080521A643D
:1087B4001B6C03F080530193019B02B0704700BF10
:1087C4000038024002680E4B9A4200D0704700B550
:1087D40083B00021019103F59C335A6C42F00102ED
:1087E4005A645B6C03F001030193019B0A46192050
:1087F40000F05EF9192000F091F903B05DF804FB74
:108804000000014030B589B000230393049305931D
:10881400069307930268324B9A4201D009B030BDE7
:1088240004460025019503F5FA331A6C42F400322C
:108834001A641A6C02F400320192019A02951A6BBE
:1088440042F001021A631B6B03F001030293029BC3
:108854000C2303930223049306930723079303A98A
:10886400204800F0DDFB2048204B03604FF00063FC
:1088740043608560C5604FF4806303614561856131
:10888400C5610562456200F09DF918BB164BA363F0
:108894009C631748174B03604FF000634360402309
:1088A40083600023C3604FF480620261436183618B
:1088B400C3610362436200F085F970B90C4B6363D2
:1088C4009C6300221146262000F0F2F8262000F0D6
:1088D40025F9A3E7FFF758FFD8E7FFF755FFEDE7C2
:1088E40000440040000002402C0000208860024048
:1088F4008C000020A0600240FEE7FEE7FEE7FEE7F2
:10890400FEE770477047704708B500F099F808BD56
:1089140008B5024800F094FA08BD00BF2C000020FE
:1089240008B5024800F08CFA08BD00BF8C00002096
:1089340008B5024801F0BCF808BD00BFEC000020F7
:1089440008B5024801F0A2FE08BD00BFA001002046
:10895400044BD3F8882042F47002C3F88820024AFA
:108964009A60704700ED00E000800008DFF834D022
:108974000D480E490E4A002302E0D458C450043373
:10898400C4188C42F9D30B4A0B4C002301E013604A
:108994000432A242FBD3FFF7DBFF02F02DFBFFF70B
:1089A40011FE704700000220040000201000002087
:1089B400E8B1000810000020F4020020FEE70000E7
:1089C40010B504460E4B18784FF47A73B3FBF0F3EA
:1089D4000C4A1068B0FBF3F000F0C0F868B90F2C33
:1089E40001D901200AE0002221464FF0FF3000F0B7
:1089F4005FF8054B1C60002000E0012010BD00BFA3
:108A040008000020040000200C00002008B50B4BD7
:108A14001A6842F400721A601A6842F480621A609A
:108A24001A6842F480721A60032000F02FF80F20B5
:108A3400FFF7C6FFFFF7AAFE002008BD003C024076
:108A4400034A1168034B1B780B441360704700BF43
:108A5400E401002008000020014B1868704700BFA3
:108A6400E401002038B50446FFF7F6FF0546B4F1EB
:108A7400FF3F02D0044B1B781C44FFF7EDFF401B63
:108A8400A042FAD338BD00BF080000200749CA68D5
:108A9400030203F4E06322F4E0621204120C1343B1
:108AA40043F0BF6343F40033CB60704700ED00E054
:108AB40000B5184BDB68C3F30223C3F1070CBCF108
:108AC400040F28BF4FF0040C03F1040EBEF1060F8F
:108AD4008CBF033B00234FF0FF3E0EFA0CFC21EA4F
:108AE4000C0199400EFA03F322EA03021143002811
:108AF40009DB0901C9B200F1604000F5614080F86A
:108B040000135DF804FB00F00F000901C9B2024B29
:108B14001954F6E700ED00E014ED00E0002808DB4E
:108B2400420900F01F00012303FA00F0014B43F84F
:108B34002200704700E100E0BFF34F8F0549CA6887
:108B440002F4E062044B1343CB60BFF34F8F00BFCA
:108B5400FDE700BF00ED00E00400FA050138B0F1C4
:108B6400807F0BD24FF0E0235861054AF02182F850
:108B740023100020986107221A6170470120704772
:108B840000ED00E010B402460368D8B210380B4977
:108B9400A1FB004109090A4C615CD1655F2808D931
:108BA40023F47F7323F00303181D90655DF8044BD1
:108BB400704723F47F7020F00300F6E7ABAAAAAA5B
:108BC400B8B0000838B50446FFF746FF002C00F0A3
:108BD4008C800546022384F83530002384F8343031
:108BE4002268136823F00103136023681A6812F0E3
:108BF400010F0AD0FFF730FF431B052BF5D92023C3
:108C04006365032084F8350038BD1A68384810407D
:108C14006168A2680A43E1680A4321690A436169F9
:108C24000A43A1690A43E1690A43216A0A430243E8
:108C3400616A042921D01A6021684A6922F0070276
:108C4400636A1A43042B0AD1A06A0243E36A33B16C
:108C5400A5693DBB01281FD030F0020012D04A6143
:108C64002046FFF78FFFE26D3F239340836000208F
:108C74006065012384F83530C6E7E16A206B01435F
:108C84000A43D8E7C3F30063002BE8D040236365AD
:108C9400012084F83500B7E7B3F1C07F14BF002387
:108CA4000123F1E7B5F5005F08D00228EED90328C7
:108CB400D5D1C3F30063002BD1D0E7E70328CED886
:108CC40001A555F820F000BF918C0008DD8C000848
:108CD400918C0008E38C0008C3F30063EBE7B3F165
:108CE400C07F14BF00230123E5E701208CE700BF08
:108CF4003F8010F070B4846D90F834C0BCF1010F63
:108D04003FD04FF0010C80F834C090F835C05FFAC2
:108D14008CFCBCF1010F05D0002380F83430022014
:108D240070BC7047022580F83550002545650668FB
:108D3400356825F48025356005686B608368402BB1
:108D44001AD0036899600368DA60C26D3F239340C8
:108D5400A3600268136843F016031360036C23B125
:108D64000268136843F0080313600268136843F051
:108D7400010313600020D3E703689A600368D96095
:108D8400E3E70220CCE770B50446866DFFF764FE86
:108D940094F83530DBB2022B06D0802363650023C0
:108DA40084F83430012070BD05462268136823F02E
:108DB400160313602268536923F080035361236C04
:108DC400E3B12268136823F0080313602268136870
:108DD40023F00103136023681B6813F0010F11D003
:108DE400FFF73AFE431B052BF5D9202363650320C7
:108DF40084F83500002384F83430D4E7A36C002BC6
:108E0400DFD1E3E7E26D3F239340B360012384F8AD
:108E14003530002084F83400C5E790F83530DBB2F3
:108E2400022B03D08023436501207047052380F87B
:108E340035300268136823F0010313600020704783
:108E4400F0B583B0044600230193724B1E68876D0E
:108E54003D68C26D082393402B4210D003681A6802
:108E640012F0040F0BD01A6822F004021A60C26DCB
:108E740008239340BB60436D43F001034365E26DF7
:108E8400012393402B4209D02268526912F0800FCB
:108E940004D0BB60636D43F002036365E26D042399
:108EA40093402B4209D02268126812F0020F04D0BA
:108EB400BB60636D43F004036365E26D102393406C
:108EC4002B4224D02268126812F0080F1FD0BB6016
:108ED40023681A6812F4802F0DD01B6813F4002F36
:108EE40004D1236C9BB12046984710E0A36C73B166
:108EF400204698470BE01A6812F4807F03D11A6861
:108F040022F008021A60236C0BB120469847E26DE8
:108F1400202393402B4255D02268126812F0100F80
:108F240050D0BB6094F83530DBB2052B0ED02368EB
:108F34001A6812F4802F33D01B6813F4002F2AD13F
:108F4400636C002B3ED0204698473BE022681368B0
:108F540023F0160313602268536923F080035361DE
:108F6400236CA3B12268136823F008031360E26D35
:108F74003F239340BB60012384F83530002384F8F9
:108F84003430236D002B43D02046984740E0A36C37
:108F9400002BE7D1EBE7E36BA3B12046984711E040
:108FA4001A6812F4807F09D11A6822F010021A603C
:108FB400012384F83530002384F83430E36B0BB19B
:108FC40020469847636D1BB3636D13F0010F1BD0EC
:108FD400114BA3FB0636B60A052384F83530226804
:108FE400136823F001031360019B01330193B3421F
:108FF40004D823681B6813F0010FF5D1012384F80A
:109004003530002384F83430E36C0BB120469847A4
:1090140003B0F0BD04000020B5814E1B406D7047C5
:109024002DE9F04F83B000221346784DDFF8E8B104
:10903400774CDFF8E8814DE087684FF0030909FABF
:1090440002F927EA0909CF68974047EA09078760C8
:10905400476827EA0E0E4F68C7F300179F4047EA98
:109064000E07476046E04FF0000E0EFA09FE4EEA86
:109074000A0EC7F808E0A7686FEA0C0E4E6816F4EB
:10908400801F0CBF0EEA07074CEA0707A760E768D2
:109094004E6816F4001F0CBF0EEA07074CEA0707D8
:1090A400E76067684E6816F4003F0CBF0EEA0707D6
:1090B4004CEA0707676027684E6816F4803F0CBFC8
:1090C4000EEA07074CEA0707276001330232102B28
:1090D40000F098804FF0010E0EFA03FE0F680EEABE
:1090E400070C3EEA0706F0D14F6807F00307013F7B
:1090F400012FA1D94F6807F00307032F27D0C768B2
:109104004FF0030E0EFA02FE27EA0E0E8F68974008
:1091140047EA0E07C7604F6807F00307022F16D10E
:109124004FEAD30E00EB8E0EDEF8207003F0070931
:109134004FEA89094FF00F0A0AFA09FA27EA0A0ADC
:109144000F6907FA09F747EA0A07CEF8207007689B
:109154004FF0030E0EFA02FE27EA0E0E4F6807F0D8
:109164000307974047EA0E0707604F6817F4403F2C
:10917400ABD0002701976F6C47F480476F646F6C26
:1091840007F480470197019F23F0030707F1804705
:1091940007F59C37D7F808A003F0030E4FEA8E09B1
:1091A4004FF00F0E0EFA09FE2AEA0E0A58453FF454
:1091B4005AAF184EB04216D0404517D006F5006697
:1091C400B04216D006F58066B04215D006F580662A
:1091D400B04214D006F58066B0420CBF4FF0060EC4
:1091E4004FF0070E41E74FF0010E3EE74FF0020E3D
:1091F4003BE74FF0030E38E74FF0040E35E74FF02E
:10920400050E32E703B0BDE8F08F00BF003802401E
:10921400003C0140000402400000024000080240FB
:109224000AB18161704709048161704730B583B028
:1092340000230193194B1A6C42F080521A641B6C80
:1092440003F080530193019B154B01221A64FFF72D
:1092540003FC0446134D6B6813F4803F08D1FFF7F9
:10926400FBFB001BB0F57A7FF5D9032003B030BDBA
:109274000B4B01225A64FFF7EFFB0446094D6B6860
:1092840013F4003F07D1FFF7E7FB001BB0F57A7F2B
:10929400F5D90320EAE70020E8E700BF00380240E0
:1092A40000000E4200700040002800F09D802DE96F
:1092B400F0410D460446504B1B6803F00F038B42EC
:1092C40008D2CBB24C4A1370136803F00F038B42DD
:1092D40040F08C80236813F0020F17D013F0040FB2
:1092E40004D0464A936843F4E0539360236813F030
:1092F400080F04D0414A936843F4604393603F4AA3
:10930400936823F0F003A1680B439360236813F080
:10931400010F32D06268012A21D0931E012B25D976
:10932400364B1B6813F0020F62D034498B6823F06C
:10933400030313438B60FFF78FFB06462F4F41F265
:109344008838BB6803F00C036268B3EB820F14D057
:10935400FFF782FB801B4045F3D9032042E0274BF3
:109364001B6813F4003FE0D101203BE0234B1B6852
:1093740013F0007FD9D1012034E01F4B1B6803F0A8
:109384000F03AB4207D9EAB21B4B1A701B6803F0F8
:109394000F03AB422ED1236813F0040F06D0174AF3
:1093A400936823F4E053E1680B439360236813F05C
:1093B400080F07D0114A9368216923F4604343EAF4
:1093C400C103936000F042F80C4B9B68C3F3031392
:1093D4000B4AD35CD8400B4B18600B4B1868FFF753
:1093E400EFFA0020BDE8F081012070470120F9E781
:1093F4000120F7E70120F5E7003C02400038024075
:10940400A0B00008040000200C000020044B9B685E
:10941400C3F38223034AD35C034A1068D8407047DD
:1094240000380240B0B0000804000020044B9B68E0
:10943400C3F34233034AD35C034A1068D8407047ED
:1094440000380240B0B000080400002008B55C4BAE
:109454009B6803F00C03082B07D00C2B5BD05948F6
:10946400594A042B08BF104608BD554B5A6802F0F0
:109474003F025B6813F4800F2AD0514B5968C1F343
:10948400881C4FEA4C11B1EB0C006EEB0E0E4FEA48
:109494008E1343EA90638101091A63EB0E03DB0028
:1094A40043EA5173C90011EB0C0C43F10003590258
:1094B40000234FEA4C2041EADC51FEF7A9FE404B61
:1094C4005B68C3F3014301335B00B0FBF3F0CBE70C
:1094D4003B4B5968C1F3881C4FEA4C11B1EB0C00AB
:1094E4006EEB0E0E4FEA8E1343EA90638101091A64
:1094F40063EB0E03DB0043EA5173C90011EB0C0C60
:1095040043F10003990200234FEA8C2041EA9C5165
:10951400FEF77EFED3E72A4B5A6802F03F025B68EF
:1095240013F4800F28D0264B5968C1F3881C4FEAE6
:109534004C11B1EB0C006EEB0E0E4FEA8E1343EAA6
:1095440090638101091A63EB0E03DB0043EA517354
:10955400C90011EB0C0C43F10003590200234FEA3C
:109564004C2041EADC51FEF753FE154B5B68C3F314
:109574000273B0FBF3F077E7114B5968C1F3881C11
:109584004FEA4C11B1EB0C006EEB0E0E4FEA8E134A
:1095940043EA90638101091A63EB0E03DB0043EA9B
:1095A4005173C90011EB0C0C43F100039902002321
:1095B4004FEA8C2041EA9C51FEF72AFED5E700BF12
:1095C400003802400024F40000127A00002800F061
:1095D40004822DE9F04182B00446036813F0010FC0
:1095E40041D09A4B9B6803F00C03042B32D0974B69
:1095F4009B6803F00C03082B27D0944B9B6803F063
:109604000C030C2B59D06368B3F5803F5BD0B3F5E2
:10961400A02F5ED08D4B1A6822F480321A601A682B
:1096240022F480221A606368002B5CD0FFF714FADE
:109634000546864E336813F4003F14D1FFF70CFA45
:10964400401B6428F6D90320CEE1804B5B6813F4F9
:10965400800FD2D07D4B1B6813F4003F03D06368A6
:10966400002B00F0BC81236813F0020F60D0774B0D
:109674009B6813F00C0F4AD0744B9B6803F00C03E7
:10968400082B3FD0714B9B6803F00C030C2B69D063
:10969400E368002B75D06E4B01221A60FFF7DCF9EA
:1096A40005466A4E336813F0020F61D1FFF7D4F90F
:1096B400401B0228F6D9032096E1644B5B6813F43F
:1096C400800FA0D0C6E7614A136843F48033136067
:1096D400A9E75E4B1A6842F480221A601A6842F4C1
:1096E40080321A609FE7FFF7B7F90546574E336893
:1096F40013F4003FB7D0FFF7AFF9401B6428F6D945
:10970400032071E1514B5B6813F4800FBAD14F4BC6
:109714001B6813F0020F03D0E368012B40F0618152
:109724004A4A1368216923F0F80343EAC10313602A
:10973400236813F0080F49D06369002B33D0444BDE
:109744000122C3F8802EFFF787F905463F4E736F59
:1097540013F0020F3AD1FFF77FF9401B0228F6D924
:10976400032041E1394B5B6813F4800F90D1CEE7BD
:10977400364A1368216923F0F80343EAC1031360EE
:10978400D6E7334B00221A60FFF766F905462F4EE1
:10979400336813F0020FCBD0FFF75EF9401B0228A9
:1097A400F6D9032020E12A4B0022C3F8802EFFF7CC
:1097B40053F90546254E736F13F0020F06D0FFF7D9
:1097C4004BF9401B0228F6D903200DE1236813F05E
:1097D400040F77D01D4B1B6C13F0805F33D1002333
:1097E40001931A4B1A6C42F080521A641B6C03F0FA
:1097F40080530193019B0125164B1B6813F4807F52
:109804002AD0A368012B3BD0052B3FD00F4B1A6FF6
:1098140022F001021A671A6F22F004021A67A36881
:10982400002B3DD0FFF718F90646084F41F288385F
:109834003B6F13F0020F44D1FFF70EF9801B404534
:10984400F6D90320D0E00025D6E700BF0038024057
:1098540000004742007000406B4A136843F4807371
:109864001360FFF7F9F80646674F3B6813F4807FEF
:10987400C7D1FFF7F1F8801B0228F6D90320B3E023
:10988400624A136F43F001031367C8E75F4B1A6F13
:1098940042F004021A671A6F42F001021A67BEE727
:1098A400FFF7DAF80646594F41F288383B6F13F058
:1098B400020F06D0FFF7D0F8801B4045F6D90320ED
:1098C40092E0EDB9A369002B00F08D804F4A9268B5
:1098D40002F00C02082A54D0022B17D04C4B002261
:1098E4001A66FFF7B9F80446484D2B6813F0007F59
:1098F40045D0FFF7B1F8001B0228F6D9032073E026
:10990400424A136C23F080531364DBE7404B00227C
:109914001A66FFF7A1F805463C4E336813F0007F42
:1099240006D0FFF799F8401B0228F6D903205BE024
:10993400E369226A1343626A43EA8213E26A43EAEE
:109944000263226B43EA0273A26A5208013A43EAB1
:1099540002432E4A53602E4B01221A66FFF77CF80D
:1099640004462A4D2B6813F0007F06D1FFF774F8E4
:10997400001B0228F6D9032036E0002034E0002042
:1099840032E0012B33D0214B5B6803F48001E269A0
:1099940091422ED103F03F02216A8A422BD1616A9F
:1099A40047F6C0721A40B2EB811F26D103F440314E
:1099B400A26A5208013AB1EB024F20D103F070625F
:1099C400E16AB2EB016F1CD1226B03F0E043B3EB0D
:1099D400027F14BF0120002006E00120704701200F
:1099E40002E0012000E0002002B0BDE8F081012087
:1099F400FAE70120F8E70120F6E70120F4E7012067
:109A0400F2E70120F0E700BF007000400038024098
:109A1400000047427047704770477047704770476F
:109A2400704770477047704790F83D30DBB2012BA8
:109A340037D1022380F83D300268D36843F0010334
:109A4400D3600368194A934220D0B3F1804F1DD0EC
:109A5400A2F57C42934219D002F58062934215D05C
:109A640002F58062934211D002F5784293420DD000
:109A740002F57052934209D0A2F59432934205D074
:109A84001A6842F001021A60002070479A6802F0D6
:109A94000702062A07D01A6842F001021A60002061
:109AA4007047012070470020704700BF000001404C
:109AB40010B5044603681A6912F0020F13D0DA686D
:109AC40012F0020F0FD06FF002021A610123037724
:109AD40003689B6913F0030F00F09280D0F8903074
:109AE40098470023237723681A6912F0040F14D0CF
:109AF400DA6812F0040F10D06FF004021A61022326
:109B0400237723689B6913F4407F00F08180D4F8A5
:109B14009030204698470023237723681A6912F06F
:109B2400080F13D0DA6812F0080F0FD06FF0080294
:109B34001A61042323772368DB6913F0030F70D0C1
:109B4400D4F89030204698470023237723681A6975
:109B540012F0100F13D0DA6812F0100F0FD06FF05C
:109B640010021A61082323772368DB6913F4407F0A
:109B740060D0D4F890302046984700232377236898
:109B84001A6912F0010F0AD0DA6812F0010F06D038
:109B94006FF001021A61D4F8803020469847236898
:109BA4001A6912F0800F0AD0DA6812F0800F06D01A
:109BB4006FF080021A61D4F8B030204698472368C9
:109BC4001A6912F0400F0AD0DA6812F0400F06D07A
:109BD4006FF040021A61D4F8883020469847236811
:109BE4001A6912F0200F0AD0DA6812F0200F06D09A
:109BF4006FF020021A61D4F8A8302046984710BDAF
:109C0400D0F898309847D4F89C302046984768E7B5
:109C1400D4F8983020469847D4F89C30204698478A
:109C240079E7D4F8983020469847D4F89C302046F9
:109C3400984789E7D4F8983020469847D4F89C3060
:109C44002046984799E7002A00F0B78010B40346ED
:109C5400144690F83C20012A00F0B18090F83D00B1
:109C6400C0B2012812D093F83D2002F0FF00002A70
:109C740040F09A800D2900F29E80DFE801F0787BA5
:109C84007D7F81838587898B8D8F91931A2900F23B
:109C94008C80DFE801F00E1114171A1D20232629E9
:109CA4002C2F3235383C4044484C5054585C606446
:109CB40068009C64084678E0DC64002075E01C655C
:109CC400002072E05C6500206FE09C6500206CE081
:109CD400DC65002069E01C66002066E05C6600200C
:109CE40063E09C66002060E0DC6600205DE01C67A9
:109CF40000205AE05C67002057E09C67002054E095
:109D0400DC67002051E0C3F8804000204DE0C3F838
:109D14008440002049E0C3F88840002045E0C3F8AF
:109D24008C40002041E0C3F8904000203DE0C3F89F
:109D34009440002039E0C3F89840002035E0C3F88F
:109D44009C40002031E0C3F8A04000202DE0C3F87F
:109D5400A440002029E0C3F8A840002025E0C3F86F
:109D6400AC40002021E0C3F8B04000201DE09C641A
:109D740008461AE0DC6418E01C6516E05C6514E033
:109D84009C6512E0DC6510E01C660EE05C660CE08D
:109D94009C660AE0DC6608E01C6706E05C6704E099
:109DA4009C6702E0DC6700E00120002283F83C208D
:109DB4005DF8044B70470120F7E70120704702204B
:109DC400F6E700000368404A90425DD0B0F1804F4E
:109DD40031D0A2F57C42904251D002F5806290428B
:109DE4006DD002F58062904264D002F578429042D0
:109DF40033D002F57052904221D002F58062904235
:109E04001DD002F58062904219D0A2F5983290429A
:109E140015D002F58062904211D002F58062904222
:109E24000DD023F080034A69134303608B68C36237
:109E34000B6883623BE023F070034A68134323F406
:109E44004073CA68134323F080034A6913430360D1
:109E54008B68C3620B68836229E023F070034A684D
:109E6400134323F44073CA68134323F080034A69FD
:109E7400134303608B68C3620B68836215E023F0AD
:109E840070034A681343DAE723F070034A68134304
:109E940023F44073CA68134323F080034A691343CD
:109EA40003608B68C3620B6883620B6903630123DD
:109EB4004361704723F070034A681343BFE723F0FC
:109EC40070034A681343BAE70000014010B4846881
:109ED40024F47F4C0A4342EA032242EA0C028260E1
:109EE4005DF8044B704790F83C30012B00F0AE80D5
:109EF40070B50446012380F83C30022380F83D30DD
:109F04000268936823F47F4323F0770393600B681C
:109F1400602B60D03DD8402B79D01CD9502B36D142
:109F240003684868CD68196A1A6A22F001021A6245
:109F34009A6922F0F00242EA051221F00A01014373
:109F44009A6119622268936823F0700343F05703FF
:109F54009360002012E0202B02D00BD9302B14D1B7
:109F640021688A6822F07002134343F007038B6070
:109F7400002003E033F01002F2D00120012384F822
:109F84003D30002384F83C3070BD0120F6E7012009
:109F9400F4E7B3F5805F55D0B3F5005F0CD1CB681F
:109FA4004A6889680068FFF791FF2268936843F460
:109FB400804393600020E1E7702B45D1CB684A6869
:109FC40089680068FFF782FF2268936843F077038B
:109FD40093600020D2E703684D68CE68186A20F0C9
:109FE4001000186299691A6A21F4704141EA063135
:109FF40022F0A00242EA051299611A62226893686B
:10A0040023F0700343F0670393600020B6E703680E
:10A014004868CD68196A1A6A22F001021A629A69BC
:10A0240022F0F00242EA051221F00A0101439A618A
:10A0340019622268936823F0700343F04703936026
:10A0440000209BE7002099E7012097E70220704752
:10A05400134BC0F88030134BC0F88430124BC0F857
:10A064008830124BC0F88C30114BC0F89030114B33
:10A07400C0F89430104BC0F89830104BC0F89C30A6
:10A084000F4BC0F8A0300F4BC0F8A4300E4BC0F8F3
:10A09400A8300E4BC0F8AC300D4BC0F8B030704750
:10A0A400199A00081B9A0008279A0008299A0008A0
:10A0B4001F9A0008219A00081D9A0008239A000894
:10A0C400259A00082B9A0008CDA10008CFA100080A
:10A0D400D1A1000880B310B5044690F83D30F3B127
:10A0E400022384F83D30214651F8040BFFF76AFE41
:10A0F400012384F8463084F83E3084F83F3084F8F5
:10A10400403084F8413084F8423084F8433084F895
:10A11400443084F8453084F83D30002010BD80F888
:10A124003C30FFF795FFA36C1BB1A36C2046984706
:10A13400D6E7024BA364F8E701207047C9870008FB
:10A1440090F83C30012B3BD030B4012380F83C30F4
:10A15400022380F83D3004686368A26823F070032A
:10A164000D682B4363600368164CA3421AD0B3F105
:10A17400804F17D0A4F57C44A34213D004F5806427
:10A18400A3420FD004F58064A3420BD004F57844B5
:10A19400A34207D004F57054A34203D0A4F5943429
:10A1A400A34204D122F0800249680A439A60012341
:10A1B40080F83D30002380F83C30184630BC7047AE
:10A1C40002207047000001407047704770470268E2
:10A1D40002F10C0353E8003F23F490730C3242E87D
:10A1E40000310029F3D1026802F1140353E8003F5F
:10A1F40023F00103143242E800310029F3D1036B48
:10A20400012B05D0202380F83E30002303637047E0
:10A21400026802F10C0353E8003F23F010030C32F0
:10A2240042E800310029F3D1ECE7000038B50446D8
:10A234000268136923F44053C1680B431361016836
:10A24400CA6883680069034360690343E0690343A0
:10A2540022F4164222F00C021343CB6022685369A5
:10A2640023F44073A1690B43536123682E4A93423C
:10A2740006D002F58062934202D0FFF7C7F801E0EE
:10A28400FFF7D4F8E369B3F5004F24D00021031895
:10A2940049411B1841F10001C90041EA5371DB0037
:10A2A400181863684FEA83024FEA937341F100017F
:10A2B400FDF7AEFF21681D4AA2FB00435B0964243D
:10A2C40004FB130000013230A2FB00201B0103EB4E
:10A2D4005010886038BD0023021843EB03011218A4
:10A2E40041F10001C90041EA5271D200101841F154
:10A2F4000001626892185B41FDF78AFF0B4DA5FBD4
:10A3040000325109642303FB1103DB003233A5FB44
:10A3140003232068C3F3421202EB01121B0903F466
:10A32400F87313448360D5E7001001401F85EB5197
:10A3340058B310B5044690F83D300BB3242384F889
:10A344003D302268D36823F40053D3602046FFF7DE
:10A354006DFF2268136923F49043136122685369E3
:10A3640023F02A0353612268D36843F40053D36073
:10A3740000202064202384F83D3084F83E3010BD52
:10A3840080F83C30FEF73EFAD8E701207047000021
:10A3940038B590F83D30DBB2202B38D10446002983
:10A3A40037D0002A37D090F83C30012B35D0012328
:10A3B40080F83C3001628284C28400250564212334
:10A3C40080F83D30436B1648D863636B15481864B6
:10A3D400636B1548D864636B1D6520681346021DC2
:10A3E400606BFEF787FC23686FF040021A6084F804
:10A3F4003C50226802F1140353E8003F43F0800309
:10A40400143242E800310029F3D1002000E0022098
:10A4140038BD0120FCE70120FAE70220F8E700BF7D
:10A42400D9A4000827A5000837A5000810B50446DC
:10A43400226802F10C0353E8003F23F490730C32BA
:10A4440042E800310029F3D1226802F1140353E8F1
:10A45400003F23F00103143242E800310029F3D114
:10A46400236B012B1FD023685B6913F0400F13D0BB
:10A47400226802F1140353E8003F23F0400314322E
:10A4840042E800310029F3D1A36B2BB100221A65F5
:10A49400A06BFEF778FC98B90020E085202384F8AF
:10A4A4003E30206310BD226802F10C0353E8003FE4
:10A4B40023F010030C3242E800310029F3D1D2E733
:10A4C400A06BFEF7ABFD2028E6D110232364032004
:10A4D400E8E7704708B50346806B1B681B6813F4F4
:10A4E400807F1AD10023C384026802F1140353E865
:10A4F400003F23F08003143242E800310029F3D1F5
:10A50400026802F10C0353E8003F43F040030C32AD
:10A5140042E800310029F3D108BDFFF7DAFFFBE779
:10A52400704708B5806BFFF7FBFF08BD70477047A5
:10A53400704710B5846B23685A6994F83D30DBB2D8
:10A54400212B0ED023685A6994F83E30DBB2222BBB
:10A554001CD0236C43F0100323642046FFF7E8FF6C
:10A5640010BD12F0800FEDD00023E384226802F1C5
:10A574000C0353E8003F23F0C0030C3242E80031DF
:10A584000029F3D1202384F83D30DBE712F0400F9B
:10A59400DFD00023E3852046FFF719FED9E708B58D
:10A5A400806B0023C385C384FFF7C2FF08BD7047D7
:10A5B40090F83E30DBB2222B1ED18368B3F5805F66
:10A5C40006D0826A83B103685B6803F07F031BE0F3
:10A5D4000369ABB9826A03685B68C3F30803138039
:10A5E400836A0233836213E00369002BEBD108E032
:10A5F400FFF79CFF002046E00220704700207047D0
:10A60400826A03685B68DBB21370836A0133836216
:10A61400C38D013B9BB2C385002BEFD100B583B042
:10A624000268D36823F02003D3600268D36823F45C
:10A634008073D3600268536923F0010353612023BC
:10A6440080F83E30036B012BD2D1002303630268F0
:10A6540002F10C0353E8003F23F010030C3242E8EC
:10A6640000310029F3D103681A6812F0100F06D0E4
:10A67400002201921A6801925B680193019B818D0B
:10A68400FFF795FF002003B05DF804FB10B582B01E
:10A69400044602681368D168506913F00F0F09D19A
:10A6A40013F0200F0DD011F0200F0AD02046FFF731
:10A6B4007FFF17E000F0010001F4907C5CEA000CDD
:10A6C40012D1206B01287FD013F0800F03D011F03A
:10A6D400800F40F0168113F0400F03D011F0400FAB
:10A6E40040F03C8102B010BD13F0010F06D011F40C
:10A6F400807F03D0226C42F00102226413F0040F25
:10A704002FD058B1226C42F00202226413F0020FDF
:10A7140000F02F81226C42F00402226413F0080F2F
:10A7240007D001F02002024303D0226C42F0080259
:10A734002264226C002AD5D013F0200F02D011F02D
:10A74400200F14D123685A69236C02F0400203F0ED
:10A75400080313430FD12046FFF7EAFE00232364C6
:10A76400C0E713F0020FD9D00028D7D0D2E7204693
:10A77400FFF71EFFE6E72046FFF729FD23685B6924
:10A7840013F0400F1CD0226802F1140353E8003F79
:10A7940023F04003143242E800310029F3D1A36BC3
:10A7A40053B1764A1A65A06BFEF737FB002899D09F
:10A7B400A06B036D984795E72046FFF7B9FE91E734
:10A7C4002046FFF7B5FE8DE713F0100F3FF47CAF82
:10A7D40011F0100F3FF478AF002301931368019335
:10A7E40053680193019B536913F0400F4FD0A26B40
:10A7F40013685B689BB2002B3FF474AFA18D994240
:10A804007FF670AFE385D369B3F5807F37D02268D4
:10A8140002F10C0353E8003F23F480730C3242E846
:10A8240000310029F3D1226802F1140353E8003FF8
:10A8340023F00103143242E800310029F3D12268E5
:10A8440002F1140353E8003F23F04003143242E8BA
:10A8540000310029F3D1202384F83E300023236300
:10A86400226802F10C0353E8003F23F010030C327A
:10A8740042E800310029F3D1A06BFEF784FAE38D9E
:10A88400A18DC91A89B22046FFF791FE2AE7E38D0C
:10A894009AB2E38D9BB2002B3FF424AFA38D9B1A95
:10A8A40099B200293FF41EAF226802F10C0353E869
:10A8B400003F23F490730C3242E800300028F3D1B7
:10A8C400226802F1140353E8003F23F00103143219
:10A8D40042E800300028F3D1202384F83E300023DE
:10A8E4002363226802F10C0353E8003F23F01003B2
:10A8F4000C3242E800300028F3D12046FFF757FE1F
:10A90400F0E694F83D30DBB2212B7FF4EBAEA36884
:10A91400B3F5805F16D0236A591C21621B785360FB
:10A92400E38C013B9BB2E384002B7FF4DBAE226813
:10A93400D36823F08003D3602268D36843F04003D4
:10A94400D360CFE62369002BE5D1236A1B88C3F3C8
:10A9540008035360236A02332362E1E7D36823F0D8
:10A964004003D360202384F83D302046FFF7B1FD37
:10A97400B8E613F0080F7FF4D8AEDAE6A3A5000812
:10A9840008B5806B036B012B02D0FFF7D0FD08BD27
:10A99400818D4908FFF70BFEF9E708B50346806B84
:10A9A4001B681B6813F4807F2BD10023C3850268C6
:10A9B40002F10C0353E8003F23F480730C3242E8A5
:10A9C40000310029F3D1026802F1140353E8003F77
:10A9D40023F00103143242E800310029F3D1026864
:10A9E40002F1140353E8003F23F04003143242E819
:10A9F40000310029F3D1202380F83E30036B012B72
:10AA040005D0036B012B0FD0FFF790FD08BD026842
:10AA140002F10C0353E8003F23F010030C3242E828
:10AA240000310029F3D1ECE7818DFFF7C0FDEDE79C
:10AA340030B583B0044613468162828500250564DF
:10AA4400222280F83E20826B2048D063A26B2048EB
:10AA54001064A26B1F48D064A26B156520680A4677
:10AA6400011DA06BFEF746F9019523681A6801924F
:10AA74005B680193019B84F83C5023695BB12268B5
:10AA840002F10C0353E8003F43F480730C3242E8B4
:10AA940000310029F3D1226802F1140353E8003F86
:10AAA40043F00103143242E800310029F3D1226853
:10AAB40002F1140353E8003F43F04003143242E828
:10AAC40000310029F3D1002003B030BD9FA9000854
:10AAD40085A9000837A5000808B590F83E30DBB218
:10AAE400202B0DD171B17AB190F83C30012B0DD0EF
:10AAF400012380F83C3000230363FFF799FF00E053
:10AB0400022008BD0120FCE70120FAE70220F8E753
:10AB140010B50446064B40F8043B214600F0C2F948
:10AB2400002384F80431034B1C60204610BD00BF91
:10AB3400CCB10008E801002008B50446064D074AD8
:10AB44000E212846FFF77FF82846FEF76DFF0434F0
:10AB5400204600F0F6F9FBE7EC00002081AB00088A
:10AB640008B590F8042182F0010280F80421202124
:10AB74000148FEF755FB08BD0000024008B5034B31
:10AB8400186808B1FFF7ECFF08BD00BFE80100201A
:10AB940070B505460C46466D0846FDF731FB864206
:10ABA4000ED17EB16B1E611EAA19013A13F8014F32
:10ABB40011F8010F844207D19342F7D1012000E03C
:10ABC400002070BD0120FCE70020FAE70023436564
:10ABD4000A787AB110B45C1C4465C25411F8012F90
:10ABE40012B1436D4F2BF6D9436D0022C2545DF868
:10ABF400044B7047436D0022C254704710B504469D
:10AC04004A6D426522B9636D0022E254204610BDAC
:10AC140000F016FAF7E738B504460D464A6D3AB91E
:10AC2400636D6A6D134463650022E254204638BDA7
:10AC3400406D204400F004FAF2E7000030B5C3B0E0
:10AC4400054614462CA8FFF7D9FF636D2BB92CA930
:10AC5400281D00F045F943B030BD084916A8FFF798
:10AC6400B5FF16A96846FFF7C9FF21466846FFF7F6
:10AC7400D2FF69462CA8FFF7CEFFE8E7C0B0000872
:10AC840010B5ACB0044607496846FFF79FFF0023A0
:10AC94002B938DF8583016AA69462046FFF7CEFF4D
:10ACA4002CB010BDC4B0000810B5ACB004460749C0
:10ACB4006846FFF78BFF064916A8FFF787FF16AA19
:10ACC40069462046FFF7BAFF2CB010BDDCB000087F
:10ACD400ECB0000810B5ACB0044607496846FFF76D
:10ACE40075FF064916A8FFF771FF16AA69462046A4
:10ACF400FFF7A4FF2CB010BDFCB0000810B1000891
:10AD040010B5ACB0044607496846FFF75FFF064933
:10AD140016A8FFF75BFF16AA69462046FFF78EFFC9
:10AD24002CB010BD14B1000810B1000810B5ACB0BF
:10AD340004460C496846FFF749FF00232B938DF81E
:10AD4400583016AA69462046FFF778FF4FF4FA7088
:10AD5400FDF788FE044B054A1A60FDF7EDFE2CB0A2
:10AD640010BD00BF28B1000800000020EFBEADDE1A
:10AD740030B5ADB004460D46084916A8FFF726FFC6
:10AD840016A96846FFF73AFF29466846FFF743FFCE
:10AD94006946201D00F0A4F82DB030BD30B1000884
:10ADA40010B596B0044605496846FFF70FFF69469B
:10ADB4002046FFF7DDFF16B010BD00BF3CB1000810
:10ADC4004B6D002B60D010B5ACB004464A1E19443C
:10ADD40001F1FF3C1346012013F8011F202908BF8D
:10ADE40001309C45F8D1002837D000232B938DF8EF
:10ADF40058309E460DE02B9B581C2B90B0336B446F
:10AE040003F8581C2B9BB0336B4403F858EC94455F
:10AE140003D012F8011F2029EDD11C4916A8FFF711
:10AE2400B7FEB8B91A4916A8FFF7B2FEB8B919495E
:10AE340016A8FFF7ADFEB0B9174916A8FFF7A8FE8C
:10AE4400A8B9164916A8FFF7A3FEA0B12046FFF73C
:10AE54006DFF02E02046FFF713FF2CB010BD204623
:10AE6400FFF722FFF9E72046FFF734FFF5E7204616
:10AE7400FFF746FFF1E70A496846FFF7A7FE694670
:10AE84002046FFF775FFE8E7704700BF4CB10008A4
:10AE94005CB1000870B1000888B10008A0B10008D6
:10AEA400B4B10008F8B50446016000258565057154
:10AEB4005026324629465C3000F0DCF804F1AC0739
:10AEC40032462946384600F0D5F80448C4F8FC0058
:10AED40032463946FFF700FE2046F8BDA0010020A7
:10AEE40010B50C464B6D00F15C01002B0ADD621EAF
:10AEF40003F15C0E86440B4612F801CF03F801CB34
:10AF04007345F9D1636D054A1288CA52626D0232E3
:10AF140092B2D0F8FC00FFF73BFA10BDD4B10008A0
:10AF240010B50446002383650371D0F8FC00FFF7D5
:10AF34007DFA502204F1AC01D4F8FC00FFF7CCFDFB
:10AF440010BD2DE9F843D0F8FC309B6B1B685E689C
:10AF5400C6F15006856DAE423FD90446AC35054472
:10AF6400002700F104096FF0AB08A8EB000812E019
:10AF7400206803685B6898472046FFF7D1FF06E026
:10AF8400D4F8FC309B6B1B685B68002BF0D008EB9B
:10AF940005039E4221D915F8012BA36D591CA16507
:10AFA40023441A71A36D23441F71A36D012BE7D9A8
:10AFB4009A1EA11809790D29E2D12344DB780A2BC2
:10AFC400DED1A26522441771206803681B684946D4
:10AFD40098472046FFF7A4FFD9E7BDE8F8830000AF
:10AFE40010B5044C2046FFF793FD2046FFF7A4FD5F
:10AFF40010BD00BFEC01002070B50D4D0D4C641B5D
:10B00400A4100026A64209D10B4D0C4C00F03AF8CE
:10B01400641BA4100026A64205D170BD55F8043B5C
:10B0240098470136EEE755F8043B98470136F2E7B6
:10B03400E0B10008E0B10008E0B10008E4B10008A4
:10B04400884210B501EB020402D98442234607D892
:10B05400431EA14208D011F8012B03F8012FF8E791
:10B06400024401468A4200D110BD13F8014D02F892
:10B07400014DF7E702440346934200D1704703F8B9
:10B08400011BF9E7F8B500BFF8BC08BC9E46704741
:0CB09400F8B500BFF8BC08BC9E46704731
:10B0A0000000000000000000010203040607080978
:10B0B000000000000102030400061016000610162E
:10B0C000200000003C424F4F545F4D4F44453E200E
:10B0D0004649524D57415245000000003C424F4105
:10B0E00052445F4E414D453E000000004E75636C7A
:10B0F000656F463434365245000000003C484152EA
:10B1000044574152455F56455253494F4E3E000009
:10B11000312E30003C4649524D574152455F56450D
:10B120005253494F4E3E00003C4F4B3E0000000042
:10B130003C4552524F523E200000000044415441D1
:10B140005F4F564552464C4F570000003C47455410
:10B150005F424F4F545F4D4F44453E003C4745547E
:10B160005F424F4152445F4E414D453E000000005A
:10B170003C4745545F48415244574152455F56450C
:10B180005253494F4E3E00003C4745545F4649529A
:10B190004D574152455F56455253494F4E3E000070
:10B1A0003C4C41554E43485F424F4F544C4F4144F5
:10B1B00045523E00554E4B4E4F574E5F434F4D4DFF
:10B1C000414E44000000000000000000C5AD000832
:08B1D000A5AD00080D0A000006
:08B1D8006CD0FF7F01000000B4
:04B1E000E9810008F9
:04B1E400C581000819
:0CB1E8000024F400010000001000000032
:0400000508008971F5
:00000001FF
